:020000040800F2
:100000001009002065010008592600084B2100084E
:1000100000000000000000000000000000000000E0
:100020000000000000000000000000005D26000845
:1000300000000000000000005B2600085F260008AA
:100040007701000800000000770100087701000830
:1000500077010008770100087701000877010008A0
:100060000000000077010008770100087701000810
:100070007701000877010008770100080000000000
:100080007701000800000000000000007701000870
:100090000000000077010008E5260008770100084D
:1000A000000000007701000800000000293200086D
:1000B00000F002F800F046F80CA030C80838241808
:1000C0002D18A246671EAB4654465D46AC4201D190
:1000D00000F038F87E460F3E0FCCB646012633427C
:1000E00000D0FB1AA246AB4633431847283600001F
:1000F00048360000103A02D378C878C1FAD85207BF
:1001000001D330C830C101D504680C6070470000CD
:100110000023002400250026103A01D378C1FBD823
:10012000520700D330C100D50B60704710B5642969
:1001300002D100F001F910BD002010BD1FB51FBD98
:1001400010B510BD00F0E9FB1146FFF7F7FF03F013
:10015000BBF800F001FC03B4FFF7F2FF03BC00F0B2
:1001600007FC00000748804707480047FEE7FEE716
:10017000FEE7FEE7FEE7FEE704480549054A064BB1
:1001800070470000E3260008B100000810030020BB
:10019000100900201005002010050020FEB50546BE
:1001A00010460C46184373D0AE468C460020AD1A5C
:1001B00001469C4167D36646002701243D46B61A96
:1001C0009D4102D313463A462124654676462F04C4
:1001D000360C3E432D0CB61A9D4104D3150C1B045E
:1001E0002B4312041034654676462F06360A3E43EA
:1001F0002D0AB61A9D4104D3150E1B022B43120281
:100200000834654676462F0736093E432D09B61A4F
:100210009D4104D3150F1B012B431201241D65467C
:100220007646AF07B6083E43AD08B61A9D4104D3E3
:10023000950F9B002B439200A41C65467646EF0762
:1002400076083E436D08B61A9D411AD392185B4159
:10025000641C16E00018764665464941B71A9D4170
:100260000191009009D36046B11A98418E468446A8
:10027000009801990025401C6941DD0752082A4376
:100280005B08641EE6D57246634603B0F0BDFFE727
:1002900000200146C046C0462A462346F5E7000036
:1002A0000FB41CB5084B06AA7B446946009005981C
:1002B00000F007FB04460020694600F015FB2046CD
:1002C0001CBC08BC04B018473D060000F8B50E463B
:1002D0000446002020622046E1688847002829D093
:1002E000252802D06268A16820E0E1682046002746
:1002F000884705001ED028464138192802D8012712
:10030000FF0220353246204627602946FFF70EFFC0
:10031000002808D0012804D0F61DF608F60008369B
:10032000D9E7361DD7E762682846A1689047206A5A
:10033000401CCFE7206AF8BDF7B500257529106885
:10034000009914A611D0C046C046002802DA4042E7
:1003500011A608E0009909688A0701D50FA602E0F6
:10036000490704D50EA6012501E0C046C046009FFE
:100370000024243704E000F0BCFA30313955641C05
:100380000028F8D12B4632462146009800F03CFA6E
:10039000FEBD0000000000002D0000002B0000004A
:1003A0002000000030B5441C03E00178401C002907
:1003B0000DD08107F9D10B4BDD0104C8D11A91434F
:1003C0002940FAD0001B0A0603D0C01E30BD001B16
:1003D00030BD0A0401D0801E30BD0902FCD0401E91
:1003E00030BD00000101010101E004C0091F042922
:1003F000FBD28B0701D50280801CC90700D0027098
:10040000704700290BD0C30702D00270401C491E60
:10041000022904D3830702D50280801C891EE3E7EA
:100420000022EEE70022DFE7002203098B422CD3F3
:10043000030A8B4211D300239C464EE003460B4334
:100440003CD4002243088B4231D303098B421CD396
:10045000030A8B4201D394463FE0C3098B4201D388
:10046000CB01C01A524183098B4201D38B01C01AC0
:10047000524143098B4201D34B01C01A5241030937
:100480008B4201D30B01C01A5241C3088B4201D3E6
:10049000CB00C01A524183088B4201D38B00C01A93
:1004A000524143088B4201D34B00C01A5241411ABA
:1004B00000D201465241104670475DE0CA0F00D09D
:1004C0004942031000D34042534000229C46030996
:1004D0008B422DD3030A8B4212D3FC22890112BA1C
:1004E000030A8B420CD3890192118B4208D38901F4
:1004F00092118B4204D389013AD0921100E089090C
:10050000C3098B4201D3CB01C01A524183098B42EC
:1005100001D38B01C01A524143098B4201D34B01D5
:10052000C01A524103098B4201D30B01C01A524138
:10053000C3088B4201D3CB00C01A524183088B42BF
:1005400001D38B00C01A5241D9D243088B4201D348
:100550004B00C01A5241411A00D201466346524133
:100560005B10104601D34042002B00D54942704732
:1005700063465B1000D3404201B50020C046C04630
:1005800002BD704770477047F0B5FF252D04C609BE
:10059000C209FF2704462E400137CB093E4348409D
:1005A0002A402B400746002A6BD0002B69D0AA4274
:1005B00067D0AB4265D0002800DA32460125ED0550
:1005C00029432C4309022002090AD21A4B0C7F242A
:1005D000E31A434C000A7C44E35C7D242404121992
:1005E00014145B00A218884201D3521C00E04000A2
:1005F00049420C465C4324115C43DB016415E3185B
:10060000040A5C43C502200D0C4644436419250AC4
:100610005D432303EC0C0D46654300030019EB1802
:100620004C42A34201D35B18401CD4052018002B78
:1006300007D05B00C91804D3401C002901D1400831
:1006400040003F2189048A4209D3002A08DC1106B0
:10065000090F04D0032149074018C00FC007F0BD9F
:1006600001224100120689187F2252069142F6D2D9
:1006700005214907C84201D59010F0BDFF20C005F3
:10068000F0BD002F00DA32461648AA4207D2AB422C
:1006900005D21902090E17D0F80FC007F0BDFF25CB
:1006A00063002D06AB42F9D84900A942F6D8AB4207
:1006B00001D1A942F2D0A94201D1002101E061009B
:1006C0004908D0050843F0BD1102090EFBD0FF20F8
:1006D0000243D005F0BD0A460146104654E700002B
:1006E000FA3000000000C07F10B501469E240002D1
:1006F000CA15A307002A02D01843002A04DBA21A55
:10070000002A0CDDD04010BD1206120E01D14000AF
:100710004008A21A03D4D04040420028F3DDFF2253
:1007200048001206904201D9002010BDC817C043EE
:10073000584010BD0102C21504D00123DB07194344
:10074000002A0ADB9E239A1A02D40846D04070473A
:10075000FF2241001206914201D900207047C017C4
:10076000C04370471F22030C02D10F2200041CD08B
:10077000030E01D10002083A030F01D10001121F3C
:10078000830F01D18000921E002801DB4000521E21
:10079000D2055118021251181922904004D3491C55
:1007A000002801D14908490008467047C10FC90710
:1007B00000D04042012292071143D3E7012189076B
:1007C000D0E7000010B5FF22C30D134009D05A40F6
:1007D00007D0914205DA5C42A14202DDC905081842
:1007E00010BDC40FE407002B06D0002A06D0002954
:1007F00002DBFF20C0050443204610BD4102FCD0AF
:10080000004810BD0000C07FFFB504460D4681B012
:10081000243000902168880604D51022E0699143B5
:10082000216000E00120A84201DD471B00E0002715
:100830000498A1697A191018081AA0612078C006D6
:1008400002D42046C046C046002608E003986268ED
:10085000A168805D9047206A401C761C2062049845
:100860008642F3DB2078C0060AD52046C046C04643
:1008700006E06268A16830209047206A401C206230
:1008800038467F1E0028F4DC07E000986268A16803
:10089000405D9047206A401C206228466D1E00285B
:1008A000F3DC2046C046C0462078000602D5022070
:1008B00005B0F0BD0120FBE701694A1C0261087820
:1008C000704700B58FB00291002105910549019351
:1008D00079440391114604906846FFF7F7FC0FB086
:1008E00000BD0000E5FFFFFF0A681070521C0A609F
:1008F000704701468008081A02091018020A1018E9
:10090000020C1018C008820012185200891A01E067
:10091000401C0A390A29FBD27047754600F024F8BA
:10092000AE46050069465346C008C000854618B06B
:1009300020B5FFF721FC60BC00274908B646002619
:10094000C0C5C0C5C0C5C0C5C0C5C0C5C0C5C0C57F
:10095000403D49008D46704710B50446C046C0462C
:100960002046FFF7F8FB10BD00487047B00200209A
:1009700001491820ABBEFEE726000200704730B5E3
:10098000014620314B780022022B04D004238363DC
:100990000A70012030BD03681C680E25AC431C6042
:1009A00003681C68640864001C600123056C1C4615
:1009B000C06BAC4044604B700A70002030BD70B515
:1009C0000024014620314A78022A03D004218163A1
:1009D000012416E0026813680E25AB431360026819
:1009E00013685B085B0013600122056C1346AB4083
:1009F000C56B6B604A7000220A70416B002900D001
:100A00008847204670BD000070B5044600F0F4F839
:100A10000546601C02D004480078241800F0ECF869
:100A2000401BA042FAD370BD44000020F8B500235B
:100A300003240125BAE02E469E40B44632407CD0C5
:100A40000E79B607B60F012E01D0022E17D1866897
:100A50002746B6465E00B74000967646BE43B64689
:100A6000CF68009EB7407646374387604668674642
:100A7000BE430F79FF06FF0F9F40374347600E7953
:100A8000F643B6070ED0C6682746B4465E00B646A3
:100A9000B7406646BE43B4468F687646B740664662
:100AA0003743C7600E79B607B60F022E14D1DE08A1
:100AB000B60036180096366A5F07B446FE0E0F275A
:100AC000B646B7406646BE43B4460F697646B74061
:100AD00066463743009E376206682746B4465E0086
:100AE000B646B7406646BE430F79B446BF07BF0F50
:100AF0007646B7406646374307604E68B603B60F82
:100B000053D02D4FBE692E43BE61BE699F08F607C4
:100B1000F60F2A4EBF00BE190096B6680F27B446DE
:100B20009E07360FB646B7406646BE430927FF0606
:100B3000B446B84202D1002710E036E0204FB84258
:100B400001D101270AE01F4FB84201D1022705E079
:100B50001D4FB84201D1032700E005277646B74074
:100B600066463743009EB760184E36684F68964316
:100B7000FF0300D51643154F3E607E684F689643CD
:100B8000BF0300D51643114F7E60BE684F68964381
:100B9000FF0200D516430D4FBE60FE684F689643B6
:100BA000BF0200D51643094AD6605B1C0A68164688
:100BB000DE4000D03FE7F8BD0010024000000140D9
:100BC0000004004800080048000C004800040140F0
:100BD0000069084000D001207047426913460B406D
:100BE0001B0491430B4383617047002A01D081614C
:100BF00070478162704700000148806870470000BC
:100C00004400002070B5024640325378202B1CD19E
:100C10001378012B19D00123137024245470046815
:100C200025689D432560046825681E03B54325603B
:100C3000046825680D432560006801681943016058
:100C4000202050700020107070BD022070BD70B563
:100C5000024640325378202B1BD11378012B18D039
:100C6000012414702423537003681D68A5431D607C
:100C700005682B680F263602B34309021943296021
:100C8000006801682143016020205070002010702E
:100C900070BD022070BD40304078704770B50400D0
:100CA00006D02546403568780026002802D005E0A9
:100CB000012070BD2E70204600F004FA24206870D8
:100CC000206801684908490001600F216068090631
:100CD00088432168086121688A680120C003824333
:100CE0008A60E1680129A16808D02122920211439B
:100CF00022689160E168022902D005E00143F7E72C
:100D000001212268C902516021684A680F4B1A43C9
:100D10004A602168CA688243CA60616920690843E1
:100D2000A169090208432168C860216AE069084393
:100D3000216808602068016801221143016066642F
:100D4000202068702663AE70002070BD0080000215
:100D5000FFB5054604464035687881B0202878D133
:100D60002878012875D001202870FFF745FF074635
:100D7000012200901923D103204601F0F1FA002846
:100D80003CD1222068701020A87000266664039869
:100D90006062049860856663618D2F48FF2903D9DE
:100DA000FF22228500903BE0618D218500903DE08F
:100DB0002046029901F0C0FA16E001F0F9FA002885
:100DC0001CD12068406A616A0870606A401C6062D9
:100DD000208D401E81B22185608D401E6085608D12
:100DE000002801D000290CD0608D0A9900283A46CD
:100DF0002046E2D101F01CFB00281CD0012005B0E8
:100E0000F0BD00970022802120460A9B01F0A8FA3D
:100E10000028F3D1608DFF2805D9FF222285009696
:100E200001231B06C4E7608D20850096208D0123D9
:100E3000C2B25B06BCE721682020C86121684A680D
:100E4000064B1A404A606870AE702E700020D6E7DC
:100E5000FFE70220D3E700000024008000E800FE46
:100E6000FFB5054604464035687881B0202878D122
:100E70002878012875D001202870FFF7BDFE0746AD
:100E8000012200901923D103204601F069FA0028BD
:100E90003CD1212068701020A87000266664039859
:100EA0006062049860856663618D2F48FF2903D9CD
:100EB000FF22228500903BE0618D218500903DE07E
:100EC0002046029901F038FA16E001F0D7FA00281E
:100ED0001CD1606A216800788862606A401C606288
:100EE000608D401E6085208D401E80B22085618D02
:100EF000002901D000280CD0608D0A9900283A46BC
:100F00002046E2D101F094FA00281CD0012005B05F
:100F1000F0BD00970022802120460A9B01F020FAB4
:100F20000028F3D1608DFF2805D9FF222285009685
:100F300001231B06C4E7608D20850096208D0123C8
:100F4000C2B25B06BCE721682020C86121684A68FC
:100F5000064B1A404A606870AE702E700020D6E7CB
:100F6000FFE70220D3E700000020008000E800FE39
:100F7000FFB5054604464035687883B0202875D112
:100F80000C98002814D00D98002811D0287801283A
:100F90006CD001202870FFF72FFE07460122009039
:100FA0001923D103204601F0DBF9002874D103E0B6
:100FB0000120400260646FE0222068704020A87029
:100FC000002666640C9860620D98608566630E98D2
:100FD0000090019704A90EC9204601F07DF9002870
:100FE00001D02E7058E0618D3448FF2905D9FF22C9
:100FF000228501231B06009006E0618D218500906B
:10100000208D0123C2B25B062046049901F094F9B9
:1010100000970022042120460E9B01F0A1F9002830
:101020003AD12068406A616A0870606A401C606258
:10103000208D401E81B22185608D401E6085608DAF
:1010400000281FD000291DD10097002280212046B2
:101050000E9B01F085F900281ED1608DFF2806D96E
:10106000FF22228501231B06009607E024E0608D05
:1010700020850096208D0123C2B25B06204604998C
:1010800001F05AF9608D0028C2D13A4620460E99E7
:1010900001F0CEF9002802D0012007B0F0BD206891
:1010A0002021C16120684268054B1A404260697086
:1010B000AE702E700020F0E70220EEE700240080E2
:1010C00000E800FE10B586B0044614216846FFF71C
:1010D000A9F913492068884220D1124C6169012086
:1010E00040040143616161690140032005914002B0
:1010F0000090122001900120029003200390042010
:10110000049009206946C006FFF790FCE1690120C0
:1011100040050143E161E1690140059106B010BD60
:10112000005400400010024002488168027889188B
:10113000816070474400002010B506480168102205
:1011400011430160032000F007F800F027F80020A9
:1011500010BD00000020024070B504460D4D7D20FA
:101160002978C000FFF760F901460B480068FFF7D7
:101170005BF900F043FB002809D1042C07D20022C0
:101180002146401E00F02AF800206C6070BD01204E
:1011900070BD0000440000205000002008B5084841
:1011A0008169012211438161816911400091C26905
:1011B00001040A43C261C0690840009008BD0000F4
:1011C00000100240002805DBC106C90E012088403E
:1011D000014908607047000000E100E010B502F02E
:1011E00051F810BDF8B505460068354CC00352D51E
:1011F000E0690026C00007D4E16920040143E161F1
:10120000E1690140012600912E480168C90510D40A
:101210000168821511430160FFF7EEFC074604E008
:10122000FFF7EAFCC01B642824D826480068C005E4
:10123000F6D5206A03273F02384020D0696839403C
:1012400081421CD0206A226AB843012109040A4362
:101250002262226A8A4322622062C0070FD0FFF70F
:10126000CBFC009008E0FFF7C7FC0099411A164834
:10127000814201D90320F8BD206A8007F3D5206A96
:101280006968B84308432062002E04D0E169012058
:1012900000078143E1612878C00705D0206BA96869
:1012A00080088000084320632878800605D5206BDD
:1012B00010218843E968084320630020F8BD00003E
:1012C000001002400070004088130000F8B50F467F
:1012D000060059D03A4D2868C007C00FB84209D25D
:1012E000286840084000384328602868C007C00FBD
:1012F000B84249D13068334C81070CD5400704D53A
:10130000606807210902084360606068F021884333
:10131000B168084360603078C00726D07068012843
:101320000ED0216802280ED0890700292CDA6168C6
:101330008908890001436160FFF75EFC00900DE0C1
:1013400021688903F1E78901EFE7FFF755FC009970
:10135000411A1D48814201D90320F8BD60680C2163
:101360000840716889008842EFD12868C007C00F23
:10137000B8420BD9286840084000384328602868E4
:10138000C007C00FB84201D00120F8BD3078400737
:1013900006D56068072109028843F1680843606048
:1013A00000F028F86168094A0906090F515CC84035
:1013B000074908600320FFF7CFFE0020F8BD0000BA
:1013C000002002400010024088130000BC360008D4
:1013D000500000200448054900684968044A49054E
:1013E000490F515CC8407047500000200010024077
:1013F000CC36000810B514A30FCB88B06C460FC4D0
:1014000015A30FCB0FC4184A51680C200B4603409C
:101410001648042B16D0082B14D18B021B0F6C46D8
:10142000E45CD26A04AB1207120F9A5CC90305D5BB
:1014300000231946FEF7B2FE214601E020460C4982
:1014400001F0FAFE08B010BD020304050607080902
:101450000A0B0C0D0E0F10100102030405060708FD
:10146000090A0B0C0D0E0F100010024000127A003A
:1014700000093D00FEB5040070D02078DC4DC007A7
:101480004AD068680007800F012807D06868000705
:10149000800F022809D16868C00306D52868800338
:1014A0003AD560680028E7D036E06168012914D099
:1014B00001208004002901D0052914D02A680121C7
:1014C00009048A432A6029688143296060680028EA
:1014D00016D0FFF791FB06460EE0286801210904AB
:1014E00008432860F2E7296801432960F5E7FFF720
:1014F00083FB801B64286ED828688003F7D50BE037
:10150000FFF77AFB064604E0FFF776FB801B6428B2
:10151000F1D828688003F7D42078012680070028B6
:101520003CDA68680007800F07D068680007800F02
:10153000022809D16868C00306D42868800716D538
:10154000E06801280AD112E0E0680028286816D077
:1015500030432860FFF750FB074605E043E1FFF703
:101560004BFBC01B0228C6D828688007F7D528681F
:10157000F82188432169C900084328600EE040082B
:1015800040002860FFF738FB074604E0FFF734FB14
:10159000C01B0228AFD828688007F7D4207800073E
:1015A00022D5E0690028686A0ED030436862FFF7F0
:1015B00023FB074604E0FFF71FFBC01B02289AD855
:1015C000686A8007F7D50FE0400840006862FFF7BF
:1015D00013FB074605E09DE0FFF70EFBC01B02284A
:1015E00089D8686A8007F7D4207804274007002844
:1015F00060DA00200190E869C00008D4E969B80603
:101600000143E961E96901400120009101907948B5
:101610000168C90511D40168821511430160FFF703
:10162000EBFA009005E0FFF7E7FA0099401A64280A
:1016300070D870480068C005F5D5A06801280AD0A8
:10164000002801D0052810D0286A400840002862F0
:10165000286AB84301E0286A30432862A06800285D
:1016600012D0FFF7C9FA00900AE0286A38432862CE
:10167000F1E7FFF7C1FA0099411A5F48814249D862
:10168000286A8007F5D50DE0FFF7B6FA009006E06E
:10169000FFF7B2FA0099411A574881423AD8286AAE
:1016A0008007F5D40198002804D0E96901200007DB
:1016B0008143E9612078C00635D5606901280CD0E6
:1016C000401D686B23D038436863686B4008400056
:1016D0006863FFF791FA064622E0686B3843686357
:1016E000686B30436863FFF787FA064604E0FFF74C
:1016F00083FA801B02285BD8686B8007F7D5686B7C
:10170000F8218843A169C900084368630BE0B84326
:101710006863F4E74CE0FFF76FFA801B022847D8B4
:10172000686B8007F7D4206A00285ED069680907D3
:10173000890F022942D0012636060228286805D0E2
:10174000B0432860FFF758FA044633E0B0432860FE
:10175000FFF752FA074604E0FFF74EFAC01B0228D3
:1017600026D828688001F7D4E86AE16A00090001F8
:101770000843E862616AA06A084369683D2212046E
:10178000914308436860286830432860FFF734FAC3
:10179000044604E0FFF730FA001B022808D8286846
:1017A0008001F7D521E0FFF727FA001B022801D9B5
:1017B0000320FEBD28688001F5D416E00128F8D08A
:1017C0006868E96A01221204636A02409A420AD1F7
:1017D0000907E26A090F914205D10F2189040840E7
:1017E000A16A884201D00120FEBD0020FEBD00009C
:1017F000001002400070004088130000094910B535
:10180000401E884201D9012010BD074C60610321B0
:10181000081F01F037FD0020A06107202061002093
:1018200010BD0000FFFFFF0000E000E070477047C0
:10183000F0B502462032137F012B1BD0012616770C
:101840000223537705686B68AC687027BB430F6849
:101850001F436F600068084B984202D0074B9842C4
:1018600004D1802349689C4321438160567700203E
:101870001077F0BD0220F0BD002C014000040040B4
:1018800070B5040005D025462035687F002802D0B9
:1018900006E0012070BD00202877204600F014F8F3
:1018A00002206877211D206800F024FF01204034C9
:1018B000A071A877E87720706070A070E070207148
:1018C00060716877002070BD08B500680A498842D9
:1018D00010D10A488269012189040A438261806922
:1018E00000220840009011461620FFF777FC1620D2
:1018F000FFF768FC08BD00000048014000100240EE
:10190000014620314A7F012A01D00120704702227E
:101910004A77006808490122884202D00749884274
:1019200004D181684907490F062902D00168114393
:101930000160002070470000002C014000040040BE
:10194000014620314A7F012A01D00120704702223E
:101950004A770268D36801210B43D3600068084AC4
:10196000904202D0074A904204D182685207520F37
:10197000062A02D002680A43026000207047000075
:10198000002C014000040040F8B50D46040005D0CD
:1019900026462036707F002802D006E00120F8BDE0
:1019A00000203077204600F043F80220707720684E
:1019B00081681C4A11408160211D206800F09AFE58
:1019C000226890689369116A2F680743BC461648DD
:1019D000AF6903403F021F43A868144B3843EF69C7
:1019E00018403F020743EB6828693B432F6A000118
:1019F0003F0338431843AA2399436B686D696746D0
:101A00002D010D432B439760216888612068036294
:101A100001204034A071B077F077A070E07070774B
:101A20000020F8BDF8BFFFFFFCFCFFFF0303FFFF32
:101A300010B586B0044614216846FEF7F3FC114940
:101A4000206888421BD11048C26902210A43C26142
:101A5000C2690A40059243690A041343436140691D
:101A6000019110400590C02000900020029003904A
:101A70000120049009206946C006FEF7D7FF06B092
:101A800010BD00000004004000100240704770B517
:101A90000446006801690025C9438907002915DB50
:101AA000C168C943890711D4E91E0161012020776B
:101AB000206880698007204602D0FFF7E7FF04E036
:101AC00000F096F8204600F094F825772068016928
:101AD000C943490717D4C168C943490713D404212E
:101AE000C943016102202077206880698005800F4A
:101AF000204602D0FFF7CAFF04E000F079F8204644
:101B000000F077F8257720680169C943090716D4E2
:101B1000C168C943090712D40821C94301610420DF
:101B200020772068C0698007204602D0FFF7AEFF0B
:101B300004E000F05DF8204600F05BF825772068AF
:101B40000169C943C90617D4C168C943C90613D47A
:101B50001021C9430161082020772068C0698005F1
:101B6000800F204602D0FFF791FF04E000F040F81C
:101B7000204600F03EF8257720680169C943C9076F
:101B800008D1C168C943C90704D1891E0161204633
:101B900000F030F820680169C943090609D4C1681A
:101BA000C943090605D48021C94301612046FFF7D6
:101BB0003DFE20680169C943490609D4C168C9438B
:101BC000490605D44021C9430161204600F058F878
:101BD00020680169C943890609D4C168C9438906D7
:101BE00005D42021C94301612046FFF720FE70BDC6
:101BF0007047704770B5204901200968C0430861EB
:101C00001E4C2079401CC0B22071642833D30025BB
:101C10002571608B7D21401C80B2C9000126608344
:101C2000884216D30920E6712021C006FEF7D5FFB1
:101C30006583A07AA178884203D0A172A6700121A1
:101C400001E0A5700021607E00F092FAA07A401CAD
:101C5000A0726079401CC0B260710A2803D326725A
:101C6000657100F081FFA079401CC0B2A0716428AA
:101C700001D36672A57170BDFC0000200000002039
:101C80007047704770470000F8B502680446D06995
:101C9000116896689C4B05461D402023002D75D089
:101CA000F7079A4DFF0FBC460D402F436DD02546D8
:101CB000C7078035002F06D0CF0504D5012717624E
:101CC0002A683A432A60820708D5F20706D02768B7
:101CD00002223A622A6804273A432A60420708D55A
:101CE000F20706D02668042232622A6802263243AE
:101CF0002A6002070AD50A461A406646324305D0D2
:101D00002668082232622E6816432E60020508D526
:101D10004A0106D501222668D20232622A681A4395
:101D20002A602A68002A39D0800606D5880604D59C
:101D3000616E002901D0204688472868216889689B
:101D4000490602D4282108422DD0204600F0F2FF97
:101D500021688868400622D5EFF31080012282F3C3
:101D600010888B68402293438B6080F31088206F2B
:101D7000002814D066494163206FFEF720FE00283A
:101D80000CD0206F416B08E000E012E0850610D512
:101D90008D060ED5616E9DE020468847F8BD204631
:101DA000FFF770FFF8BD2046FFF76CFF00202860AA
:101DB000F8BD256E012D7DD1C5067BD5CD0679D523
:101DC0001026166222689068254640064035002895
:101DD00045DA216F086840680004000CE8D02F8BBA
:101DE0008742E5D968838869202833D0EFF31080D3
:101DF000012181F3108811683701B943116080F324
:101E00001088EFF31080012181F3108821688A681F
:101E1000520852008A6080F31088EFF3108001218D
:101E200081F3108821688A684027BA438A6080F36A
:101E30001088E36700202066EFF31080012181F312
:101E4000108821680A68B2430A6080F31088206F06
:101E5000FEF795FD288B698B401A81B231E0288B03
:101E6000698B401A81B2688B0028A1D000299FD0CD
:101E7000EFF31080012585F310881568FF272137BF
:101E8000BD43156080F31088EFF31080012282F3C8
:101E90001088226895686D086D00956080F3108841
:101EA000E367002020666066EFF31080012282F372
:101EB000108800E009E022681368B343136080F3E0
:101EC00010882046FFF7DDFEF8BD050606D50D0695
:101ED00004D5A16E002900D05EE7F8BD4006FCD510
:101EE0004806FAD52046EFF31081012484F31088C8
:101EF00014684025AC43146081F310888367002187
:101F0000816600F021F9F8BD0F08000020010004EF
:101F1000212D000810B5040003D0A06F002802D0C6
:101F200007E0012010BD002174200155204600F07B
:101F300027F82420A067206801684908490001604B
:101F4000204600F0CFFF0128ECD0606A002802D0C4
:101F5000204600F04DFE206841680122D2029143E4
:101F6000416020688168082291438160206801688F
:101F7000012211430160204600F0A0FE10BD0000C8
:101F800010B586B0044614216846FEF74BFA164990
:101F90002068884226D115488269012189030A43B5
:101FA000826182690A4005924269C9000A4342611E
:101FB0004069084005900C2000900220019000200C
:101FC0000290032003900120049009206946C00676
:101FD000FEF72CFD002211461B20FFF7FFF81B2007
:101FE000FFF7F0F806B010BD0038014000100240C5
:101FF00070B5C36F202B2BD100290BD0002A09D03C
:10200000012483682403A34206D10369002B03D172
:10201000CB0701D0012070BD034660331C7D012C2D
:1020200016D001241C7500230366046863681B0234
:102030000BD5EFF31083012585F310882568012661
:10204000B6063543256083F3108800F0D9FF70BDD4
:10205000022070BD184910B588422BD117480021C5
:10206000427C622A0ED0632A19D201228274017442
:10207000114A837B8432447C0A2B135504D0212BD4
:1020800002D009E04174F0E71219203AD27F0D2AFC
:1020900001D02A2A00D14174417C491C4174092095
:1020A0000121C006FEF799FD044901220E310248C4
:1020B000FFF79EFF10BD000044010020000000203B
:1020C00070B5836F202B38D100290AD0002A08D0A0
:1020D0008568DC01A54206D10369002B03D1CB073B
:1020E00001D0012070BD034660331E7D012E24D037
:1020F00001261E75C164014640310A824A820021D0
:1021000080228166115021228267A54202D1026994
:10211000002A10D00A4A82661975EFF31081012255
:1021200082F310880068026880231A43026081F3FA
:102130001088002070BD034AEDE7022070BD00004A
:10214000FB3000089D3000087047FEE701688A698F
:10215000D243920701D400228A6200688169C94390
:10216000C90703D0816901221143816170470000D2
:1021700038B5354A0300147E01F076F808050E18CC
:10218000212B343D4652012902D0002902D047E0DC
:10219000FF2044E0002042E0012902D0002902D0C3
:1021A0003EE0012036E06008400038E0012902D01E
:1021B000002902D034E002202CE0FD2007E00129B4
:1021C00002D0002902D02BE0042023E0FB200440B1
:1021D00021E0012902D0002902D021E0082019E0E5
:1021E000F720F4E7012902D0002902D018E01020DE
:1021F00010E0EF20EBE7012902D0002902D00FE028
:10220000402007E0BF20E2E7012902D0002904D0E6
:1022100006E080200443147602E06006400E10764B
:102220000A48FEF738FD21280DD00848FEF733FD97
:10223000242808D03220044A00900123183240217B
:102240000248FEF70DFE38BD0000002068000020A7
:10225000F7B5044600680F468169C943C90636D4FC
:102260004168890104D4416801229203114341600D
:1022700000262546403520688069C043800612D577
:10228000781CF8D0FEF7B8FC0299401AB84201D881
:10229000002FF0D1616C2020014361646870AE7042
:1022A0002E700120FEBD21681020C8612068202703
:1022B000C7612046FFF74AFF20684168054A114080
:1022C0004160606C0421084360646F70E7E70020A0
:1022D000FEBD000000E800FEF8B5044616461548AD
:1022E0001D46DAB20090079F0023204600F024F834
:1022F0003A462046069900F0C1F8002818D1284631
:10230000F5B2012809D02168300A88623A46204691
:10231000069900F0B3F800280AD12068856200977A
:10232000002240212046069B00F01AF8002800D029
:102330000120F8BD00200080F0B50668059C756896
:10234000064F600D384385438805800D110408430E
:102350001843204305437560F0BD0000FF63FF0391
:10236000F8B51D4617460E46044609E0681C07D01E
:10237000FEF742FC0699401AA8420BD8002D09D05E
:1023800020688169304688430FD00020B842EDD0E4
:102390000020F8BD616C202001436164403460700E
:1023A0000020A07020700120F8BD0120EEE70000A1
:1023B000F7B50027202605460446403528E020468C
:1023C000029A0199FFF744FF002801D00120FEBDC9
:1023D00020688069C043800611D420688169C943A0
:1023E000490702D4218D002917D1C66120684168B0
:1023F0000E4A1140416067646E70AF7013E0FEF7E3
:10240000FBFB0299411A0198814208D8002806D0A6
:1024100020688069C0434007D1D40020FEBD606CB5
:10242000304360646E702F70D0E7000000E800FE5B
:1024300070B516460D4604460FE032462946204642
:10244000FFF706FF002801D0012070BDFEF7D4FB86
:10245000801BA84208D8002D06D020688069C043A0
:102460008006EAD4002070BD616C202001436164C5
:10247000403460700020A0702070E5E770B516460B
:102480000D46044611E0324629462046FFF7E0FE9D
:10249000002801D0012070BD681C06D0FEF7ACFBFF
:1024A000801BA84208D8002D06D020688069C04350
:1024B0008007E8D4002070BD616C20200143616476
:1024C000403460700020A0702070E3E70249484368
:1024D000401EFDD2704700001027000030B587B0C5
:1024E00014216846FDF79EFF1948426901218905BC
:1024F0000A43426142690A400592426949110A430E
:10250000426142690A400592426949000A434261B8
:10251000406909250840ED06059000223321284630
:10252000FEF763FB33200090012000240190029409
:10253000694603942846FEF779FA02200090019438
:10254000694602940348FEF771FA07B030BD0000F7
:10255000001002400004004810B514481249016000
:1025600013494160122181600121C1600021016194
:1025700041618161C1610162FEF790FB002801D0D9
:1025800072B6FEE700210948FEF73CFB002801D0A7
:1025900072B6FEE700210548FEF759FB002801D07E
:1025A00072B6FEE710BD0000005400406800002035
:1025B0000E09002010B58CB024216846FDF732FFCB
:1025C00000241449144809940A9412C004608460D9
:1025D000124904614160012000900194029003942B
:1025E0000690049405940794694608940A48FFF7F6
:1025F000CBF9002801D072B6FEE7099409A9064874
:102600000A94FFF715F9002801D072B6FEE70CB066
:1026100010BD000000040040B4000020FFFF0000D7
:1026200010B50C480A490160E121490241600021CE
:102630008160C16001618161C1610C2201624261FE
:102640004162FFF767FC002801D072B6FEE710BDBB
:102650000038014044010020FEE77047704710B584
:10266000FEF762FD10BD30B595B030216846FDF72C
:10267000D9FE00240F940320009001200D941094A3
:102680001294019003900E94139410200490000370
:10269000099000010C9402250A90119408950B945E
:1026A0006846FEF7E7FE002801D072B6FEE7072075
:1026B0000C900E9401210D950F940CA8FEF706FEC8
:1026C000002801D072B6FEE72120109012941394D6
:1026D00010A8FEF787FD002801D072B6FEE715B0FE
:1026E00030BD704710B50248FFF7D1F910BD0000AA
:1026F000FC00002070B50268174B184E984201D0BC
:10270000B04203D17024A2434C682243144C154DAF
:10271000984208D0B04206D0134EB04203D0A04237
:1027200001D0A84204D103263602B243CE68324318
:102730008026B2434E69324302608A68C2620A68E8
:102740008262984203D0A04201D0A84201D1096917
:1027500001630121416170BD002C01400004004073
:1027600000440140004801400020004070B56D4C1D
:102770000925E078ED06012804D10122022128462E
:10278000FEF733FAE078002804D10022022128461F
:10279000FEF72BFAE07C00282BD102216248FEF7DD
:1027A00017FA002802D0E07B002803D0607D0128C2
:1027B00020D04AE0607D01281CD0E07D012844D073
:1027C0005A4841787329E7D181786929E4D1C178E1
:1027D0006329E1D101796129DED141796B29DBD10E
:1027E00081796C29D8D1C1796929D5D1007A6B2832
:1027F0002BD08EE0E07D002827D1606AFDF79AFF9C
:10280000C2B24A484AA18230FDF74AFD82B2474827
:10281000E2834CA16430FDF743FD444982B2643148
:102820000846E838FFF74CFCC820FEF7EDF83F48B3
:102830008230FDF7B7FD3D4982B28231C81FFF38B3
:10284000FFF73EFCC820FEF7DFF8607DE17D08431E
:1028500023D136483FA18230FDF722FD82B23348B2
:10286000E28338A16430FDF71BFD304982B2643148
:102870000846E838FFF724FCC820FEF7C5F82B48C7
:102880008230FDF78FFD294982B28231C81FFF389F
:10289000FFF716FCC820FEF7B7F8E07D00250128F9
:1028A00024D1224830A18230FDF7FAFC82B21F48C1
:1028B000E28324A16430FDF7F3FC1C4982B2643149
:1028C0000846E838FFF7FCFBC820FEF79DF81748DC
:1028D0008230FDF767FD154982B28231C81FFF388B
:1028E000FFF7EEFBC820FEF78FF8E575E573A07DD6
:1028F000012809D10D480D221FA18438FFF7E0FB04
:10290000FF20F530FFF7E2FDE07D002801D165757D
:10291000A57500F025FDFDF70DFFC0B2FDF74EFFD8
:10292000606270BD0000002000040048C801002063
:10293000536963616B6C696B2020256420432720F9
:102940000A00000041542B43495053454E443D2555
:10295000640D0A0069736C656D6369207369636156
:102960006B6C6967690A000020557967756C616E48
:102970006469200A0000000041542B434950434C35
:102980004F53450D0A000000F8B56F4C01266078E2
:102990006E4D6C2870D1A07865287DD1E0786428D0
:1029A0007AD120790927FF06312835D1607920288E
:1029B00072D1A0796F286FD1E0796E2817D10122EA
:1029C00002213846FEF711F9EE7560786C2853D174
:1029D000A078652860D1E07864285DD1207931281D
:1029E0001AD16079202857D1A0796F2854D1E07985
:1029F00066287FD1207A66287CD1002202213846C1
:102A0000FEF7F3F8EE7560786C2835D1A07865286C
:102A100070D1E07864286DD1207932286AD160794C
:102A2000202867D1A0796F2864D1E0796E2817D16A
:102A3000012220213846FEF7D8F8EE7560786C2820
:102A40001AD1A078652855D1E078642852D1207930
:102A500032284FD1607920284CD1A0796F2849D1F4
:102A6000E079662846D1207A662843D100222021C9
:102A70003846FEF7BAF8EE7560786B283BD06928C7
:102A800038D1A078732835D1E0786C2832D12079FC
:102A900065282FD1607900E02CE06D282AD1A07D37
:102AA0002E2827D1FF206E752D30FDF7ADFFE07D7C
:102AB000617E6422303850430918207E0A22504338
:102AC00021221201801A0818FDF770FE0646207DAB
:102AD0000A223038617D504330380818FDF766FE11
:102AE0000446A8621A493046FDF74EFD214600F023
:102AF000D3FCE862F8BDA0786128FBD1E0786328B8
:102B00000BD07028F6D120796128F3D16079742830
:102B1000F0D1AE7502206875F8BD20792028FBD170
:102B200060796428F8D1A0796528F5D1E079722818
:102B3000F2D1207A6528EFD1607A6328ECD1A07AAF
:102B40006528E9D16E75F8BDC8010020000000209D
:102B500000007A4402480068406A0249888370474E
:102B6000B400002000000020F8B51E4C012720789A
:102B7000637802221C4900251C4E984217D06070D1
:102B80008D6084C108393046FDF750FFA0780128D8
:102B900004D1012202213046FEF727F8A078002850
:102BA00004D1002202213046FEF71FF8F8BD401C78
:102BB000C0B26070C82800D9657024C10D600A4990
:102BC0003046FDF733FF02213046FEF701F80028BA
:102BD00000D1E77002213046FDF7FAFF0128E5D168
:102BE000E570F8BD000000205400002000040048FB
:102BF00010B5818CC90707D001684A6801235B04BE
:102C00009A43836A1A434A60818C890707D5016811
:102C10004A6801231B049A43C36A1A434A60818CA1
:102C2000490707D501684A6801239B049A43036B4F
:102C30001A434A60818C090707D501684A68012355
:102C4000DB039A43436B1A434A60818CC90607D55C
:102C50000268916801231B039943836B19439160B8
:102C6000818C890607D501688A6801235B039A4332
:102C7000C36B1A438A60818C490612D503685A686F
:102C800001210905046C8A4322435A60026C8A427E
:102C900007D10268516803235B059943436C1943CC
:102CA0005160818C090607D501684A680123DB045D
:102CB000806C9A4302434A6010BD0000F8B5044698
:102CC000002680300660FDF797FF05462068006803
:102CD000124F000709D501212B4600224905204645
:102CE000009700F037FA00280DD1206800684007EF
:102CF0000BD501212B46002289052046009700F0C4
:102D000029FA002801D00320F8BD2020A067E06741
:102D10002666603426750020F8BD0000FFFFFF0125
:102D200010B5406A0022014640314A834A82FEF7CC
:102D3000A9FF10BD10B5EFF31081012282F31088B6
:102D400002681368FF242134A343136081F31088C1
:102D5000EFF31081012282F31088026893685B0808
:102D60005B00936081F31088016E01290BD1EFF3B2
:102D70001081012282F31088026813681024A34393
:102D8000136081F310882021C1670021016641662C
:102D900010BD70B5014640318B8BC46F0268222C88
:102DA00004D0906908210843906170BD928C446DF5
:102DB0001A402280426D921C42654A8B521E4A8301
:102DC0004A8B002AF1D1EFF31082012383F310889C
:102DD00003681C68FF252135AC431C6082F3108812
:102DE000EFF31082012383F3108803689C68640862
:102DF00064009C6082F310882022C2670022426631
:102E0000036E012B02D0FFF725F970BD0266EFF3C8
:102E10001082012383F310880468256810239D43E2
:102E2000256082F310880268D469E443E40600D484
:102E30001362098BFEF725FF70BD70B50146403166
:102E40008B8BC46F0268222C04D090690821084340
:102E5000906170BD928C1A40436D1A70426D521C85
:102E600042654A8B521E4A834A8B002AF1D1EFF306
:102E70001082012383F3108803681C68FF25213525
:102E8000AC431C6082F31088EFF31082012383F3BC
:102E9000108803689C68640864009C6082F3108852
:102EA0002022C26700224266036E012B02D0FFF788
:102EB000D1F870BD0266EFF31082012383F310880E
:102EC0000468256810239D43256082F310880268FA
:102ED000D469E443E40600D41362098BFEF7D1FE03
:102EE00070BD000070B5044680682169E26908433E
:102EF000616900251143084321680A683C4B1A4068
:102F000002430A6021684868032212039043E26882
:102F100010434860A169206A084321688A680B232E
:102F20001B029A4302438A603248006B8007800F7D
:102F300016D0012818D0022818D0032812D010214A
:102F40000120E369C0032C4A2C4E83422BD1002977
:102F50000ED002290FD004290FD008293FD110E04C
:102F60000021EDE70221EBE70421E9E70821E7E78B
:102F7000FEF730FA03E0104603E0FEF73BFA0028C4
:102F800031D0616840004A088018FDF74DFA80B2E0
:102F900001461039B14222D81849491C01400007A6
:102FA000400F08431DE0002906D0022907D004295C
:102FB00007D0082913D108E0FEF70CFA03E0104609
:102FC00003E0FEF717FA00280DD061684A081018D0
:102FD000FDF72AFA80B201461039B14201D9012524
:102FE00001E02168C86000206066A066284670BDC8
:102FF000F369FFFF0010024000127A00EFFF0000AB
:1030000070B54165014640310A834A830022426619
:10301000012385681B03FF249D4204D10569002D0F
:1030200031D11B4C2FE0002D29D08A8380210A50FA
:103030002221C167EFF31081012484F31088046812
:10304000A56801263543A56081F3108881689942FF
:1030500002D10169002918D00E49416674210A5431
:10306000EFF31081012282F3108800680268FF23C9
:1030700021331A43026081F31088002070BD056976
:10308000002D00D07F248C83D0E70349E5E70000C2
:10309000FF0100003B2E0008932D000810B5816F42
:1030A000212910D1014640314A8A002A0CD0C26C35
:1030B00003681288D205D20D1A85C26C921CC264B4
:1030C000488A401E488210BDEFF31081012282F32E
:1030D0001088026813688024A343136081F310886A
:1030E000EFF31081012282F3108800680268402308
:1030F0001A43026081F3108810BD10B5816F212939
:103100000ED1014640314A8A002A0AD0C26C0368B7
:1031100012781A85C26C521CC264488A401E4882CA
:1031200010BDEFF31081012282F31088026813684A
:103130008024A343136081F31088EFF310810122F0
:1031400082F310880068026840231A43026081F30A
:10315000108810BDFFB581B005461746044660359E
:103160000A9E55E0701C53D0FDF746FD0499401AA5
:10317000B04230D8002E2ED020680168490747D5CC
:10318000C069C043000543D401202168C002086221
:10319000EFF31080012181F3108821680B68FF2272
:1031A000A13293430B6080F31088EFF3108001216C
:1031B00081F3108821688A68520852008A6080F37F
:1031C00010882020A067E0678034206000202875E8
:1031D000032005B0F0BDEFF31080012181F31088CA
:1031E00021680B68FF22A13293430B6080F31088A3
:1031F000EFF31080012181F3108821688A6852085A
:1032000052008A6080F310882020A067E067DDE725
:103210002068C1690298884304D00020B842A1D038
:103220000020D6E70120F9E710B50248FEF72CFD93
:1032300010BD000044010020F8B5040C8BB22646F6
:1032400082B25E430D0C1046370C58433604801989
:103250000021794116466E43370C360480197941B6
:1032600026466E438919F8BD30B47446641E25782D
:10327000641CAB4200D21D46635D5B00E31830BCAA
:10328000184700008307FF22DB0E9A408907090ECA
:103290009940002808DB830809489B001B18186820
:1032A00090430843186070470007000F08388308F0
:1032B00004489B001B18D86990430843D8617047A5
:1032C00000E400E000ED00E0FDF736FFFFF7CBF98A
:1032D000FFF704F9FFF7A4F9FFF73EF9FFF76AF9E2
:1032E0001C481D4C002521C42560A560FF20E56019
:1032F000E030256160601848083CFEF7C1FA0028FC
:1033000001D072B6FEE71448012214494830FEF796
:103310006FFE01202168C04308610F48FEF710FBD3
:103320000D484838FEF7ECFA0C4C0E3C207A012888
:1033300002D12572FFF728FB607A012802D165725D
:10334000FFF714FAE0790128F0D1E571FFF702FCEC
:10335000ECE7000000480140FC0000200E000020C7
:103360007FB50A22022103A86C4607C40123052267
:1033700031214248FDF7FCFD002849D00F250123EB
:103380003F4A80213D480095FDF76AFD3C4AFF26F3
:1033900002232C32802139480096FDF7D9FC384CA5
:1033A00001230C3CE07222460D3280213348009507
:1033B000FDF756FD224602233D3280212F4800961C
:1033C000FDF7C6FCE07220463830008840BAFDF7B1
:1033D000F5F92C4900F0A6F82B4900F007F9FDF7A4
:1033E00083F921463D31206348780978000208437B
:1033F00040BAFDF7E3F9254900F094F8244900F0BC
:10340000F5F8FDF771F96063FDF7D0F904B070BD10
:103410006946087B1F4CC006C00E0873C1061AD54A
:103420000007000F69460873FDF7C8F905466946AD
:10343000487BFDF7C3F92146FDF7C4F90446284649
:103440000421FDF7BFF9214600F026F88721C905C0
:1034500000F0C0F8DAE7FDF7B1F905466846407BB1
:10346000FDF7ACF92146FDF7ADF9044628460421E5
:10347000FDF7A8F9214600F00FF8C7E76800002023
:103480000C0000200000FA3A0000C04052B82F3B68
:1034900066663B42FCFFFFFF70B501250400ED07A7
:1034A0004C4020D4441A01D2001B0919C60D4B0010
:1034B000F2B2FF2A29D01B0E2CD000020C02D31A24
:1034C0002C43DC402843051910D2280A02D3401CA3
:1034D0006D0611D0761EF6058019FF2A00DA70BD40
:1034E000C00DC00570BD694000F086F8012005439D
:1034F000C541521C761CE8E764089C40C901614044
:103500008900E7D10124A043E4E71B0E440200D068
:10351000034870BD002AFCD1C00FC00770BD00BFBA
:103520000000C07F70B5420064414B005C41120E48
:1035300039D01B0E38D0FF2A3CD0FF2B3AD04002A6
:103540004902400A490A060045184E43000A090A82
:10355000D2184843ED017F3A0104731A4019190C3F
:103560004318990F04D001215B0849075B1A521CCC
:10357000D80904D3401CF50301D19D0607D0FF2ACA
:1035800008D2D50506D0E4072043401970BD0125B7
:10359000A843F4E7002A01DCE00770BD2402FF2005
:1035A0002043C00570BD1B0EFF2A03D0FF2B01D0A6
:1035B000E00770BDFF2645003606B54206D84D002F
:1035C000B54203D8D218FF2A00D0E7E7004870BD03
:1035D0000000C07F70B50125ED07684004004C4035
:1035E00002D5694000F008F8FFF75CFF70B50125CF
:1035F0000400ED074C4022D4441A02D26C40001B58
:103600000919C60D4B00F2B2FF2A4BD01B0E50D049
:1036100000020C02D31A2C43DC40A843051B05D53D
:10362000AD0019D36D08761E521E37D0F605280A54
:1036300001D2801970BD70416D0603D070BD694024
:10364000FFF730FF9C4009026140490001D0401E55
:1036500070BD0124A04370BD6D081DD001202B0C4E
:1036600001D12D0410302B0E01D12D0208302B0F6B
:1036700001D12D01001DAB0F01D1AD00801CEB0F5E
:1036800001D16D00401C6D00361A121A680AF5054A
:103690004019012A02DB70BD002070BDC036300A1F
:1036A000C00770BD1B0E440201D1FF2B00D10248A0
:1036B00070BD002AF0D070BD0000C07F0000000087
:1036C00000000000010203040607080900000000D2
:1036D000010203048182838485868788898B8C8D8F
:1036E0008E8F919293959697999A9C9D9FA0A2A355
:1036F000A5A7A8AAACAEB0B2B3B5B7B9BCBEC0C29C
:10370000C5C7C9CCCED1D4D7D9DCDFE2E6E9ECF02D
:10371000F3F7FAFE343700080000002054000000E0
:10372000F40000088837000854000020BC0800009E
:103730001001000800000000000000000000000070
:10374000E5E00001000000000000000000000000B3
:1037500000000000C20100000000000000000000A6
:103760000000000000000000000000000000000059
:103770000000000000000000010000000400000044
:083780000000000000127A00B5
:04000005080000B13E
:00000001FF
